{
  "_format": "hh3-artifact-1",
  "contractName": "CheckoutUSDC",
  "sourceName": "contracts/CheckoutUSDC.sol",
  "abi": [
    {
      "inputs": [
        {
          "internalType": "address",
          "name": "usdc_",
          "type": "address"
        },
        {
          "internalType": "address",
          "name": "treasury_",
          "type": "address"
        }
      ],
      "stateMutability": "nonpayable",
      "type": "constructor"
    },
    {
      "inputs": [],
      "name": "EnforcedPause",
      "type": "error"
    },
    {
      "inputs": [],
      "name": "ExpectedPause",
      "type": "error"
    },
    {
      "inputs": [
        {
          "internalType": "address",
          "name": "owner",
          "type": "address"
        }
      ],
      "name": "OwnableInvalidOwner",
      "type": "error"
    },
    {
      "inputs": [
        {
          "internalType": "address",
          "name": "account",
          "type": "address"
        }
      ],
      "name": "OwnableUnauthorizedAccount",
      "type": "error"
    },
    {
      "inputs": [],
      "name": "ReentrancyGuardReentrantCall",
      "type": "error"
    },
    {
      "inputs": [
        {
          "internalType": "address",
          "name": "token",
          "type": "address"
        }
      ],
      "name": "SafeERC20FailedOperation",
      "type": "error"
    },
    {
      "anonymous": false,
      "inputs": [
        {
          "indexed": true,
          "internalType": "address",
          "name": "to",
          "type": "address"
        },
        {
          "indexed": true,
          "internalType": "address",
          "name": "token",
          "type": "address"
        },
        {
          "indexed": false,
          "internalType": "uint256",
          "name": "amount",
          "type": "uint256"
        }
      ],
      "name": "EmergencyWithdraw",
      "type": "event"
    },
    {
      "anonymous": false,
      "inputs": [
        {
          "indexed": true,
          "internalType": "address",
          "name": "previousOwner",
          "type": "address"
        },
        {
          "indexed": true,
          "internalType": "address",
          "name": "newOwner",
          "type": "address"
        }
      ],
      "name": "OwnershipTransferred",
      "type": "event"
    },
    {
      "anonymous": false,
      "inputs": [
        {
          "indexed": false,
          "internalType": "address",
          "name": "account",
          "type": "address"
        }
      ],
      "name": "Paused",
      "type": "event"
    },
    {
      "anonymous": false,
      "inputs": [
        {
          "indexed": true,
          "internalType": "bytes32",
          "name": "orderId",
          "type": "bytes32"
        },
        {
          "indexed": true,
          "internalType": "address",
          "name": "buyer",
          "type": "address"
        },
        {
          "indexed": false,
          "internalType": "uint256",
          "name": "amount",
          "type": "uint256"
        },
        {
          "indexed": true,
          "internalType": "bytes32",
          "name": "quoteHash",
          "type": "bytes32"
        }
      ],
      "name": "PremiumPaid",
      "type": "event"
    },
    {
      "anonymous": false,
      "inputs": [
        {
          "indexed": true,
          "internalType": "address",
          "name": "oldTreasury",
          "type": "address"
        },
        {
          "indexed": true,
          "internalType": "address",
          "name": "newTreasury",
          "type": "address"
        }
      ],
      "name": "TreasuryUpdated",
      "type": "event"
    },
    {
      "anonymous": false,
      "inputs": [
        {
          "indexed": false,
          "internalType": "address",
          "name": "account",
          "type": "address"
        }
      ],
      "name": "Unpaused",
      "type": "event"
    },
    {
      "stateMutability": "payable",
      "type": "fallback"
    },
    {
      "inputs": [],
      "name": "USDC",
      "outputs": [
        {
          "internalType": "contract IERC20",
          "name": "",
          "type": "address"
        }
      ],
      "stateMutability": "view",
      "type": "function"
    },
    {
      "inputs": [
        {
          "internalType": "bytes32",
          "name": "orderId",
          "type": "bytes32"
        },
        {
          "internalType": "uint256",
          "name": "amount",
          "type": "uint256"
        },
        {
          "internalType": "bytes32",
          "name": "quoteHash",
          "type": "bytes32"
        }
      ],
      "name": "buyPolicy",
      "outputs": [],
      "stateMutability": "nonpayable",
      "type": "function"
    },
    {
      "inputs": [
        {
          "internalType": "address",
          "name": "token",
          "type": "address"
        },
        {
          "internalType": "address",
          "name": "to",
          "type": "address"
        },
        {
          "internalType": "uint256",
          "name": "amount",
          "type": "uint256"
        }
      ],
      "name": "emergencyWithdraw",
      "outputs": [],
      "stateMutability": "nonpayable",
      "type": "function"
    },
    {
      "inputs": [],
      "name": "owner",
      "outputs": [
        {
          "internalType": "address",
          "name": "",
          "type": "address"
        }
      ],
      "stateMutability": "view",
      "type": "function"
    },
    {
      "inputs": [],
      "name": "pause",
      "outputs": [],
      "stateMutability": "nonpayable",
      "type": "function"
    },
    {
      "inputs": [],
      "name": "paused",
      "outputs": [
        {
          "internalType": "bool",
          "name": "",
          "type": "bool"
        }
      ],
      "stateMutability": "view",
      "type": "function"
    },
    {
      "inputs": [],
      "name": "renounceOwnership",
      "outputs": [],
      "stateMutability": "nonpayable",
      "type": "function"
    },
    {
      "inputs": [
        {
          "internalType": "address",
          "name": "newOwner",
          "type": "address"
        }
      ],
      "name": "transferOwnership",
      "outputs": [],
      "stateMutability": "nonpayable",
      "type": "function"
    },
    {
      "inputs": [],
      "name": "treasury",
      "outputs": [
        {
          "internalType": "address",
          "name": "",
          "type": "address"
        }
      ],
      "stateMutability": "view",
      "type": "function"
    },
    {
      "inputs": [],
      "name": "unpause",
      "outputs": [],
      "stateMutability": "nonpayable",
      "type": "function"
    },
    {
      "inputs": [
        {
          "internalType": "address",
          "name": "newTreasury",
          "type": "address"
        }
      ],
      "name": "updateTreasury",
      "outputs": [],
      "stateMutability": "nonpayable",
      "type": "function"
    },
    {
      "inputs": [],
      "name": "version",
      "outputs": [
        {
          "internalType": "string",
          "name": "",
          "type": "string"
        }
      ],
      "stateMutability": "pure",
      "type": "function"
    },
    {
      "stateMutability": "payable",
      "type": "receive"
    }
  ],
  "bytecode": "0x60a060405234801561000f575f80fd5b50604051610aad380380610aad83398101604081905261002e9161014c565b338061005457604051631e4fbdf760e01b81525f60048201526024015b60405180910390fd5b61005d816100e2565b50600180556001600160a01b0382161580159061008257506001600160a01b03811615155b6100ba5760405162461bcd60e51b81526020600482015260096024820152683d32b9379030b2323960b91b604482015260640161004b565b6001600160a01b03918216608052600280546001600160a01b0319169190921617905561017d565b5f80546001600160a01b038381166001600160a01b0319831681178455604051919092169283917f8be0079c531659141344cd1fd0a4f28419497f9722a3daafe3b4186f6b6457e09190a35050565b80516001600160a01b0381168114610147575f80fd5b919050565b5f806040838503121561015d575f80fd5b61016683610131565b915061017460208401610131565b90509250929050565b60805161091161019c5f395f818161024c015261033501526109115ff3fe6080604052600436106100aa575f3560e01c80637f51bb1f116100635780637f51bb1f146102085780638456cb591461022757806389a302711461023b5780638da5cb5b1461026e578063e63ea4081461028a578063f2fde38b146102a9576100e5565b80633f4ba83a146101165780634471932b1461012c57806354fd4d501461014b5780635c975abb1461019557806361d027b3146101bd578063715018a6146101f4576100e5565b366100e55760405162461bcd60e51b81526020600482015260066024820152650dcde5acae8d60d31b60448201526064015b60405180910390fd5b60405162461bcd60e51b81526020600482015260066024820152650dcde5acae8d60d31b60448201526064016100dc565b348015610121575f80fd5b5061012a6102c8565b005b348015610137575f80fd5b5061012a6101463660046107f2565b6102da565b348015610156575f80fd5b506040805180820182526013815272636865636b6f75742d757364632f312e302e3160681b6020820152905161018c919061081b565b60405180910390f35b3480156101a0575f80fd5b505f54600160a01b900460ff16604051901515815260200161018c565b3480156101c8575f80fd5b506002546101dc906001600160a01b031681565b6040516001600160a01b03909116815260200161018c565b3480156101ff575f80fd5b5061012a6103b3565b348015610213575f80fd5b5061012a610222366004610882565b6103c4565b348015610232575f80fd5b5061012a61045f565b348015610246575f80fd5b506101dc7f000000000000000000000000000000000000000000000000000000000000000081565b348015610279575f80fd5b505f546001600160a01b03166101dc565b348015610295575f80fd5b5061012a6102a43660046108a2565b61046f565b3480156102b4575f80fd5b5061012a6102c3366004610882565b61051d565b6102d061055a565b6102d8610586565b565b6102e26105da565b6102ea610604565b5f82116103245760405162461bcd60e51b81526020600482015260086024820152670616d6f756e743d360c41b60448201526064016100dc565b600254610360906001600160a01b037f00000000000000000000000000000000000000000000000000000000000000008116913391168561062e565b80336001600160a01b0316847f77fcf0d8d18bcc3e5174e062a965653d56639d5e9d49d4a75290e8d9c49ba7b08560405161039d91815260200190565b60405180910390a46103ae60018055565b505050565b6103bb61055a565b6102d85f61069b565b6103cc61055a565b6001600160a01b03811661040e5760405162461bcd60e51b81526020600482015260096024820152683d32b9379030b2323960b91b60448201526064016100dc565b600280546001600160a01b038381166001600160a01b0319831681179093556040519116919082907f4ab5be82436d353e61ca18726e984e561f5c1cc7c6d38b29d2553c790434705a905f90a35050565b61046761055a565b6102d86106ea565b61047761055a565b6001600160a01b0382166104b75760405162461bcd60e51b81526020600482015260076024820152667a65726f20746f60c81b60448201526064016100dc565b6104cb6001600160a01b038416838361072c565b826001600160a01b0316826001600160a01b03167ff24ef89f38eadc1bde50701ad6e4d6d11a2dc24f7cf834a486991f38833285048360405161051091815260200190565b60405180910390a3505050565b61052561055a565b6001600160a01b03811661054e57604051631e4fbdf760e01b81525f60048201526024016100dc565b6105578161069b565b50565b5f546001600160a01b031633146102d85760405163118cdaa760e01b81523360048201526024016100dc565b61058e61075d565b5f805460ff60a01b191690557f5db9ee0a495bf2e6ff9c91a7834c1ba4fdd244a5e8aa4e537bd38aeae4b073aa335b6040516001600160a01b03909116815260200160405180910390a1565b6002600154036105fd57604051633ee5aeb560e01b815260040160405180910390fd5b6002600155565b5f54600160a01b900460ff16156102d85760405163d93c066560e01b815260040160405180910390fd5b6040516001600160a01b0384811660248301528381166044830152606482018390526106959186918216906323b872dd906084015b604051602081830303815290604052915060e01b6020820180516001600160e01b038381831617835250505050610786565b50505050565b5f80546001600160a01b038381166001600160a01b0319831681178455604051919092169283917f8be0079c531659141344cd1fd0a4f28419497f9722a3daafe3b4186f6b6457e09190a35050565b6106f2610604565b5f805460ff60a01b1916600160a01b1790557f62e78cea01bee320cd4e420270b5ea74000d11b0c9f74754ebdbfc544b05a2586105bd3390565b6040516001600160a01b038381166024830152604482018390526103ae91859182169063a9059cbb90606401610663565b5f54600160a01b900460ff166102d857604051638dfc202b60e01b815260040160405180910390fd5b5f8060205f8451602086015f885af1806107a5576040513d5f823e3d81fd5b50505f513d915081156107bc5780600114156107c9565b6001600160a01b0384163b155b1561069557604051635274afe760e01b81526001600160a01b03851660048201526024016100dc565b5f805f60608486031215610804575f80fd5b505081359360208301359350604090920135919050565b5f602080835283518060208501525f5b818110156108475785810183015185820160400152820161082b565b505f604082860101526040601f19601f8301168501019250505092915050565b80356001600160a01b038116811461087d575f80fd5b919050565b5f60208284031215610892575f80fd5b61089b82610867565b9392505050565b5f805f606084860312156108b4575f80fd5b6108bd84610867565b92506108cb60208501610867565b915060408401359050925092509256fea264697066735822122046211d31b520400149717f3fc72e2f4e84bdc3e3248c922f306dd8759f9615dd64736f6c63430008180033",
  "linkReferences": {},
  "deployedLinkReferences": {},
  "immutableReferences": {
    "1025": [
      {
        "length": 32,
        "start": 588
      },
      {
        "length": 32,
        "start": 821
      }
    ]
  },
  "inputSourceName": "project/contracts/CheckoutUSDC.sol",
  "buildInfoId": "solc-0_8_24-e6650d0db2088496eeba7e5859b8c230e656b588"
}